:100000000C948D010C94D4010C94D4010C94D40163
:100010000C94D4010C94D4010C94D4010C94D4010C
:100020000C94D4010C94D4010C94EA1B0C94BD1CC8
:100030000C94FF120C94D4010C94D4010C94D401B0
:100040000C94D4010C94D4010C94D4010C94D401DC
:100050000C94D4010C9460130C94D4010C94D4012E
:100060000C94D4010C94D4010C94D4010C94D401BC
:100070000C94D4010C94D4010C94D4010C94D401AC
:100080000C94D4010C94D4010C94D4010C94D4019C
:100090000C94D4010C94D4010C94D4010C94D4018C
:1000A0000C94D4010C94D4010C94D40101E000060A
:1000B0000119614B00AE0048004E00010001000133
:1000C0000001000100010001000100010001000128
:1000D0000001000100010001000100010001000118
:1000E0000001000100010001000100010001000108
:1000F00000010001000100010001000100010001F8
:1001000000010001000100010001000100010001E7
:1001100000010001000100010001000100010001D7
:1001200000010001000100010001000100010001C7
:1001300000010001000100010001000100010001B7
:1001400000010001000100010001000100010001A7
:100150000001000100010001000100010001000197
:100160000001000100010001000100010001001276
:10017000036B006500790062006F0061007200642B
:10018000000000160371006D006B006200750069CD
:10019000006C00640065007200000004030904099B
:1001A000026D00040100A0FA09040000010301012E
:1001B0000009211101000122400007058103080008
:1001C0000A090401000103010200092111010001D3
:1001D000224D000705820308000A090402000103FA
:1001E00000000009211101000122360007058303E8
:1001F00008000A090403000103000000092111019D
:1002000000012239000705840320000112011001BA
:1002100000000008EDFE6060010001020001050120
:100220000906A101050719E029E715002501950830
:1002300075018102050819012905950575019102CD
:100240009501750391010507190029F7150025018E
:1002500095F875018102C005010980A1018502168A
:1002600001002603001A81002A8300751095018180
:1002700000C0050C0901A1018503160100269C029E
:100280001A01002A9C02751095018100C005010920
:1002900002A1010901A1000509190129051500257F
:1002A000019505750181029501750381010501091B
:1002B0003009311581257F950275088106093815A9
:1002C00081257F950175088106050C0A3802158184
:1002D000257F950175088106C0C005010906A101A9
:1002E000050719E029E71500250195087501810228
:1002F0009501750881010508190129059505750104
:1003000091029501750391010507190029FF150058
:1003100026FF00950675088100C011241FBECFEF8F
:10032000DAE0DEBFCDBF04B603FE27C08091F9013D
:100330009091FA01A091FB01B091FC018730904BA4
:10034000A740B04BD1F41092F9011092FA0110922B
:10035000FB011092FC0114BE84B7877F84BF0FB6E7
:10036000F894A89580916000886180936000109255
:1003700060000FBEE0E0F8E3099511E0A0E0B1E015
:10038000E4E5F0E402C005900D92AC32B107D9F774
:1003900021E0ACE2B1E001C01D92A93FB207E1F754
:1003A0000E9440190C94FC1F0C940000FC01611188
:1003B00006C08281882319F08CEA90E0089590E0CD
:1003C00080E008950895089581E00895089581E0FA
:1003D00008950C94E4010E944F0B2FEF84E39CE0FE
:1003E000215080409040E1F700C000000C9483133E
:1003F000EF92FF920F931F93CF93DF938C01FC0139
:10040000E080F18080914E01811140C0828188237B
:10041000C1F1C7010E94D410C82F682FC7010E94E4
:100420007D10B7018C2F0E943003EC01B8010E94AF
:10043000E901882309F44BC0B801CE010E943905B7
:10044000882309F444C0C531F0E7DF0720F5C23046
:1004500080E7D80708F04DC0C115E0E7DE0791F14D
:10046000C130D047E1F181E080932E0180932F01CC
:10047000C801DF91CF911F910F91FF90EF900C94E5
:10048000E701C7010E94AB10C82FCBCFC7010E9464
:10049000D410B701C8CFCC3380E7D80709F49BC08C
:1004A000CD33D04701F7F8018281882309F4BAC01F
:1004B00010922F010E942F1390932D0180932C01F5
:1004C00080E296C0F801828181110E94EB0180E0F8
:1004D000DF91CF911F910F91FF90EF900895F80158
:1004E00082818823A1F38091B90181608093B90151
:1004F000EECFF8018281882309F4BACF0E948F12CF
:10050000811102C00E9475120E94AC1290E090937B
:10051000EB018093EA01FE01E350F0478091EA018C
:100520008160E231F10538F4E250F04E0C94AC1FDA
:100530008091EA0182608093EA018091EA010E9441
:10054000B0120E944F0BC3CF8091EA018460F3CFB9
:100550008091EA018860EFCF8091EA018061EBCF62
:100560008091EA018062E7CF8091EA018064E3CF65
:100570008091EA018068DFCF8091EA018C60DBCF57
:100580008091EA018E7FD7CF8091EA018D7FD3CF12
:100590008091EA018B7FCFCF8091EA01877FCBCF1B
:1005A0008091EA018F7EC7CF8091EA018F7DC3CF12
:1005B0008091EA018F7BBFCF8091EA018F77BBCF1B
:1005C0008091EA01837FB7CF9091EA01892F97FB51
:1005D00087F98058B0CFF8018281882361F01092AA
:1005E0002E010E942F1390932D0180932C0182E005
:1005F0000E94B4086CCF80912E0181110FC08091B0
:100600002C0190912D010E943B13883C910530F400
:1006100086E20E94890786E20E94650882E00E94C5
:10062000BB0855CF80912F0181110FC080912C0103
:1006300090912D010E943B13883C910530F487E294
:100640000E94890787E20E94650880E2E8CF0C9447
:1006500088050C948A050C94E6010C942B030895EC
:10066000972F70E023E0929F600D711D1124FB0114
:1006700096E0899FE00DF11D1124EE0FFF1FE1555B
:10068000FF4F859194910895FC01EE0FFF1FE159F2
:10069000FE4F8591949108950E9430030E94BD04FD
:1006A0009C01811540E4940708F097C0211580E370
:1006B000380708F0FAC0203E310508F074C0203C2D
:1006C000310508F0E5C0283A310588F4253A3105AE
:1006D00008F0E2C02130310509F477C0C901049760
:1006E000813A910508F471C030E020E06EC0C90184
:1006F000885A91094597C0F7283A310509F4FEC098
:10070000293A310509F4FDC02A3A310509F4FCC043
:100710002B3A310509F4FBC02C3A310509F4FAC033
:100720002B3B310509F4F9C02C3B310509F4F8C025
:100730002D3A310509F4F7C0203B310509F4F6C024
:100740002E3A310509F4F5C02F3A310509F4F4C009
:10075000213B310509F4F3C0223B310509F4F2C015
:10076000233B310509F4F1C0243B310509F4F0C005
:10077000253B310509F4EFC0263B310509F4EEC0F5
:10078000273B310509F4EDC0283B310509F4ECC0E5
:10079000293B310509F4EBC02A3B310509F4EAC0D5
:1007A00020E034E412C0211590E2390780F42F3F95
:1007B000310509F050F4283E310538F0C901805F59
:1007C00091093065409708F08FCFC9010895C9019C
:1007D0009F700E9444039C01F8CF8115944508F056
:1007E00041C0211583E5380708F06AC0211592E55C
:1007F000390738F5211541E5340708F05CC02115AB
:1008000080E5380708F454C0C90134E0969587950F
:100810003A95E1F78370422F46954695437090E2F2
:10082000499FA0011124582B822F837021E030E0D2
:1008300002C0220F331F8A95E2F7242B352B3C6828
:10084000C4CFC9018370992741E050E002C0440F32
:10085000551F8A95E2F72695269580E2289F9001FC
:100860001124EBCF211596E5390748F4922F8827FC
:1008700021153545C8F59C01246F306AA6CFC90102
:1008800090563F708115904108F02ECF30629DCF79
:10089000C901805C91099DCF253A310549F1263A7D
:1008A000310549F522E830E490CF3327306C8DCF05
:1008B0003F70306A8ACF322F2227216F306A85CF6E
:1008C000C9018370992741E050E002C0440F551FD1
:1008D0008A95E2F72695269580E2289F90011124BB
:1008E000242B352B3A6871CF88279F719C01CECF7E
:1008F00021E830E46ACF23E830E467CF22EE34E425
:1009000064CF29EE34E461CF2AEE34E45ECF25EBE8
:1009100034E45BCF26EB34E458CF23EB34E455CFFB
:1009200024EB34E452CF27EB34E44FCF2CEC34E407
:100930004CCF2DEC34E449CF23E835E446CF2AE808
:1009400035E443CF22E935E440CF24E935E43DCF17
:1009500021E236E43ACF23E236E437CF24E236E42C
:1009600034CF25E236E431CF26E236E42ECF27E23B
:1009700036E42BCF2AE236E428CF803E910581F180
:10098000C8F48133910509F462C048F489329105B5
:1009900009F456C08A32910509F460C0089589337C
:1009A0009105B9F082389105A1F08533910509F4DC
:1009B00040C00895863E910561F138F4823E91056C
:1009C000B1F0833E9105E1F00895873E910551F124
:1009D00008952091EA012370D9F080EE90E0089507
:1009E0002091EA0120FF14C089E390E0089520914E
:1009F000EA0122FF0DC024FD09C083EE90E00895B6
:100A00002091EA0122FD31C024FF02C090E080E085
:100A100008952091EA0123FFFBCF24FDF7CF87EE55
:100A200090E008952091EA0123FFEECF86EE90E05A
:100A300008952091EA0125FFEBCF89E290E0089527
:100A40002091EA0125FFE4CF85E390E0089520910D
:100A5000EA0126FFDDCF8AE290E008952091EA01C5
:100A600026FFD6CF81E390E0089582EE90E00895CE
:100A700008950F931F93CF938C01FB018281811105
:100A800006C0C1E08C2FCF911F910F910895C091A6
:100A90003D01C11125C00531104799F70E94380565
:100AA00081E080933D010E942F1390933C0180933D
:100AB0003B011092300110923201109231011092DC
:100AC00034011092330110923601109235011092C8
:100AD00038011092370110923A0110923901D2CFA9
:100AE00080913B0190913C010E943B13883C910511
:100AF00040F680913001E82FF0E0EE0FFF1FEF5C31
:100B0000FE4F118300838F5F80933001C0E0BACF26
:100B10000C94E2010C94E301CF93DF9385B78068D6
:100B200085BF85B7806885BF2098289A2198299A23
:100B3000A3E1B1E046E151E0C1E0D0E08D91E82FC2
:100B4000E295EF70F0E061A18F709E0101C0220F6D
:100B50008A95EAF7922F9095962391A382A1822BF2
:100B600082A34A175B0751F71092400110923E0191
:100B70001092410110923F01DF91CF910C94270315
:100B80006F927F928F929F92AF92BF92CF92DF929D
:100B9000EF92FF920F931F93CF93DF933EE3632E69
:100BA00031E0732E46E1E42E41E0F42E01E010E046
:100BB000DD24D394E301C9903E01DE011E92F701CA
:100BC00081917F01E82FE295EF70F0E091A18F70A5
:100BD000A80101C0440F8A95EAF7892F842B81A3CD
:100BE00082A1842E8094882182A380EA8A95F1F7DD
:100BF00063E171E090E080E0EB013991BE01A32E4A
:100C0000A2942FE0A222B12CE50128A19C903F7074
:100C1000580101C0AA0C3A95EAF7A22220E031F46B
:100C2000202F082E01C0220F0A94EAF729292C93BD
:100C300001968330910501F781A1882181A382A1CA
:100C4000482B42A38C91C81641F0D09242010E94D9
:100C50002F139093440180934301D0E46D16D1E0AB
:100C60007D0609F0A7CF80914201882391F0809101
:100C70004301909144010E943B13069750F08091EC
:100C80003E018093400180913F0180934101109289
:100C900042010E94290381E0DF91CF911F910F91C2
:100CA000FF90EF90DF90CF90BF90AF909F908F908C
:100CB0007F906F900895E82FF0E0E05CFE4F808118
:100CC0000895089590934A01809349010895E09111
:100CD0004901F0914A01309721F00190F081E02D17
:100CE000099480E00895E0914901F0914A0130971C
:100CF00021F00280F381E02D09940895E0914901EB
:100D0000F0914A01309721F00480F581E02D09949B
:100D1000089520914701309148012817390771F053
:100D20009093480180934701E0914901F0914A0175
:100D3000309721F00680F781E02D099408952091E5
:100D40004501309146012817390771F0909346010B
:100D500080934501E0914901F0914A01309721F0DB
:100D60000084F185E02D0994089508950C94B5064A
:100D70000E9426130E948C050C94E813BF92CF9218
:100D8000DF92EF92FF920F931F93CF93DF9300D0E8
:100D900000D00F92CDB7DEB70E94C0058CE4C82EFC
:100DA00081E0D82E10E000E0E02E802F0E945B064C
:100DB000B82EF601F1906F01F81609F45EC080912B
:100DC000B90181FD0E94610630E020E0FB244F2D37
:100DD00050E0922FBA01022E02C0759567950A94D1
:100DE000E2F760FF44C02983EA8221E030E0790124
:100DF00002C0EE0CFF1C9A95E2F72B2D30E02E215D
:100E00003F2181E0232B09F480E08B830E942F1384
:100E10008160782F9D838C8349815A816B818D817C
:100E20000E946007F801E45BFE4F80818E2580837D
:100E30000E9495160E94670690914B01891789F1CF
:100E40000E94670680934B010F900F900F900F90B8
:100E50000F90DF91CF911F910F91FF90EF90DF9056
:100E6000CF90BF900C942D0301E010E09DCF2F5F39
:100E70003F4F2330310509F0ACCF01301105A1F708
:100E80008FEF89838A831B820E942F138160782FC2
:100E90009D838C8349815A816B818D810E9460077B
:100EA000C7CF0F900F900F900F900F90DF91CF91C1
:100EB0001F910F91FF90EF90DF90CF90BF9008951A
:100EC000CF93DF93CDB7DEB72B970FB6F894DEBF85
:100ED0000FBECDBF4F83588769877A878B871E8265
:100EE00085E0FE013796DE01119601900D928A95FC
:100EF000E1F749815A816B817C818D819E812B969E
:100F00000FB6F894DEBF0FBECDBFDF91CF910C942A
:100F1000D70D882309F4D8C0823871F40E9467067F
:100F200081FDD2C089E30E947C110E94461289E3B0
:100F30000E94B9110C944612833859F40E94670636
:100F400080FDC2C083E50E947C110E94461283E5A9
:100F5000EFCF843859F40E94670682FDB5C087E45C
:100F60000E947C110E94461287E4E2CF9CEF980F0A
:100F7000913A18F40E947C11DDCF90E2980F9830DE
:100F800050F4877091E001C0990F8A95EAF7892F94
:100F90000E94FD11CFCF9BE5980F933070F4853AF6
:100FA00031F0863A39F083E890E00C94890681E8C4
:100FB00090E0FBCF82E890E0F8CF98E5980F95316C
:100FC00008F082C0883A09F440C0893A09F440C068
:100FD0008A3A09F440C08B3A09F440C08C3A09F4CB
:100FE00040C08B3B09F440C08C3B09F440C08D3AB3
:100FF00009F440C0803B09F440C08E3A09F440C077
:101000008F3A09F440C0813B09F440C0823B09F4A7
:1010100040C0833B09F440C0843B09F440C0853B99
:1010200009F440C0863B09F440C0873B09F440C046
:10103000883B09F440C0893B09F440C08A3B09F46D
:1010400040C090E080E00C949F0682EE90E0FBCFE1
:1010500089EE90E0F8CF8AEE90E0F5CF85EB90E056
:10106000F2CF86EB90E0EFCF83EB90E0ECCF84EB18
:1010700090E0E9CF87EB90E0E6CF8CEC90E0E3CF17
:101080008DEC90E0E0CF83E891E0DDCF8AE891E05D
:10109000DACF82E991E0D7CF84E991E0D4CF81E241
:1010A00092E0D1CF83E292E0CECF84E292E0CBCF48
:1010B00085E292E0C8CF86E292E0C5CF87E292E077
:1010C000C2CF8AE292E0BFCF0895882309F44BC0D3
:1010D000823871F40E94670681FF45C089E30E944F
:1010E0007C110E94461289E30E94B9110C944612A9
:1010F000833859F40E94670680FF35C083E50E945B
:101100007C110E94461283E5EFCF843859F40E9487
:10111000670682FF28C087E40E947C110E94461265
:1011200087E4E2CF9CEF980F913AF0F290E2980FAB
:10113000983050F4877091E001C0990F8A95EAF7D2
:10114000892F0E940312D2CF9BE5980F933020F491
:1011500090E080E00C948906885A853120F490E074
:1011600080E00C949F060895882321F00E94FD11D1
:101170000C9446120895882321F00E9403120C94C7
:10118000461208958F929F92AF92BF92DF92EF9294
:10119000FF920F931F93CF93DF9300D000D00F9255
:1011A000CDB7DEB77C016D837983FC0105810295A3
:1011B0000F70128111110E941C120E947511D82EFD
:1011C000882371F01123A1F08D81805E883080F03A
:1011D00082E00E945F110E94751191E0D82ED926FD
:1011E000E981E295EF70F0E0E05FFF4D0C94AC1FF9
:1011F000D12CF6CF09810F70F981F07F11F00295A3
:10120000007F1123B1F0002361F08D81805E883072
:1012100018F02D81211109C0802F0E94FD110E941C
:1012200046128D810E94890715C0802F0E940E12E0
:10123000F6CF8D810E946508002361F08D81805E6C
:10124000883018F03D81311129C0802F0E9403128F
:101250000E944612DD2009F4D3C10E94521180FD84
:10126000CFC1F70112820E944C110E94950FC70155
:101270000E94110B0E944C110F900F900F900F9035
:101280000F90DF91CF911F910F91FF90EF90DF9022
:10129000BF90AF909F908F900C94B70F802F0E94BB
:1012A0001412D6CF49814F70B42E5981507F5032DD
:1012B00019F0B29480EFB8228D81882369F08130D3
:1012C00029F1112369F1002359F0F701858180FF8D
:1012D000A8CF8F70858304C0112361F0011104C071
:1012E0008B2D0E94B408B6CF8B2D0130D1F70E9410
:1012F0003012B0CF011106C00E9433128B2D0E9414
:10130000BB08A8CF013009F4A5CFF6CF112321F0F7
:10131000063008F09FCFE4CF053008F09BCFEECF2A
:10132000002361F38D810E94650894CF89818695A1
:101330008695837069F0813009F08CCF8D81998119
:101340009370111102C090E080E00E949F0682CF4E
:101350008D8199819370111102C090E080E00E940C
:10136000890678CF8D81112329F00E94A3150E9450
:101370008A1670CF0E940B16FACF8981837009F00C
:101380005FC0111167CF2D81229526952770220FFE
:10139000220F8D818F7090E0B0E0A0E04C015D01E4
:1013A000022E04C0880C991CAA1CBB1C0A94D2F7FC
:1013B000FD8160E070E0CB01F4FF0FC06FE070E0F2
:1013C00080E090E004C0660F771F881F991F2A9560
:1013D000D2F76095709580959095298126952695F0
:1013E00023702D832230B1F0233019F19B01AC0121
:1013F000282939294A295B2929833A834B835C832D
:101400003D8169817A818B819C813130B1F00E946C
:10141000220F20CF9B01AC01282939294A295B29B9
:1014200029833A834B835C83CA01B9010E944C0F24
:1014300011CF0E94220FC501B4010E94F80E0ACFFD
:101440008695112311F089818170882309F402CFD8
:101450002D81229526952770220F220F8D818F7066
:1014600090E0B0E0A0E04C015D01022E04C0880CC9
:10147000991CAA1CBB1C0A94D2F73D8160E070E065
:10148000CB0134FF0FC06FE070E080E090E004C05B
:10149000660F771F881F991F2A95D2F76095709560
:1014A0008095909549814695469543704D8342308D
:1014B000B1F0433019F19B01AC01282939294A299F
:1014C0005B2929833A834B835C833D8169817A81DF
:1014D0008B819C813130B1F00E942810BBCE9B01E2
:1014E000AC01282939294A295B2929833A834B836E
:1014F0005C83CA01B9010E945210ACCE0E94281030
:10150000C501B4010E94FE0FA5CE3D81323F09F412
:1015100047C080F4303F79F1313FD9F1832F805EAD
:101520008031D0F0112309F456C001117ACE89819F
:101530008F7133C04D81433FD1F1443F99F711235F
:1015400009F43FC089818F7189830E94950F63E000
:1015500089810E9456117ECE5D815F705D83898195
:101560008F71112321F00E94950F8D81BACE0E94B8
:10157000B70F8D81C4CE112341F0053008F06ACE3B
:1015800089818F710E94DC0F65CE063008F062CE33
:10159000F7CF89818F71112339F00E94950F5ACEB0
:1015A00089818F711123C9F30E94B70F53CE112384
:1015B00029F089818F710E94800F4CCE0E94760F96
:1015C00049CE81E00E945F11023008F443CE82E0F0
:1015D0000E945F113FCE0111A5CE89818F71E4CFAA
:1015E00049814F706D81C7010E94D6010E94710E22
:1015F00031CE49814F706D81C7010E942F032ACEE1
:101600000F900F900F900F900F90DF91CF911F913F
:101610000F91FF90EF90DF90BF90AF909F908F90D1
:1016200008950F931F93CF93DF93EC018B819C81DF
:10163000892B29F08881998189238F3F29F4DF91B3
:10164000CF911F910F910895CE010E94F801882338
:10165000B1F3688179818A810E9422118C010E94F4
:101660007C100E94ED0EB801CE01DF91CF911F9149
:101670000F910C94C2080E941C120E942D120E940D
:10168000EF110E9446120E947B170E948A1690E07A
:1016900080E00E94890690E080E00C949F060E9402
:1016A0000B120C943B0B0E941611282F892F829548
:1016B0008F70903C80F48A30B0F4843020F4823013
:1016C00090F480E008958630E1F781E0203E88F0D4
:1016D000213FB9F70EC08C3011F08F3091F793FB9A
:1016E000882780F9089581E0203F39F018F4203EE2
:1016F00040F70895243F29F7FCCF0895CF93DF9357
:1017000000D000D00F92CDB7DEB70F900F900F90A2
:101710000F900F90DF91CF910895CF93DF9300D07A
:1017200000D000D0CDB7DEB726960FB6F894DEBF56
:101730000FBECDBFDF91CF9108951F93CF93DF935D
:10174000E0914F0116E0809150018E1304C0DF91AB
:10175000CF911F910895CE2FD0E01E9FF00111244C
:10176000EF5AFE4F4081518162817381848195815E
:101770000E948D0BFE013196E770E5CF409181010B
:101780005091820160918301709184018091850163
:10179000909186010C948D0B1F93CF93DF938091D2
:1017A0008601807FC1F4809183018823A1F080911C
:1017B0004F01C0915001609181017091820140916F
:1017C000840150918501D62FD723DA01A095B095D9
:1017D00016E0C81304C0DF91CF911F91089590E0E7
:1017E0004115510511F0DF3F31F401968770F1CFBB
:1017F0002A0F3B1F17C0189FF001199FF00D1124ED
:10180000EF5AFE4F21812713F0CF20812613EDCF11
:1018100022812111EACF238134812417350740F337
:10182000241B350B283C310500F7209186012F70D1
:1018300020612093860126E0289FF001299FF00D6A
:101840001124EA5AFE4F80818F708061808381E885
:1018500091E00E94110BDF91CF911F910C949D0B91
:101860009F92AF92BF92CF92DF92EF92FF920F932F
:101870001F93CF93DF93CDB7DEB72B970FB6F894B6
:10188000DEBF0FBECDBF8C0185E0F801DE011796EB
:1018900001900D928A95E1F7D8014C9111965C91D7
:1018A00011971296EC901297809184019091850186
:1018B000009709F46BC12091810130918201632F5F
:1018C00062236F3F09F462C11396CD90DC90909033
:1018D0008301992009F4F8C0C816D90608F43FC05E
:1018E000F601E81BF90BCF01FF24F394883C910526
:1018F00008F0F12C81E8A82E81E0B82E80918601B5
:10190000982F907FFF2009F4B7C0911180C0FE2C62
:1019100035132AC0241328C0E11026C08F708061BF
:10192000809386010E94BE0BC5010E94110B80911D
:101930008601D80115968C938F2D2B960FB6F894AF
:10194000DEBF0FBECDBFDF91CF911F910F91FF90F2
:10195000EF90DF90CF90BF90AF909F9008958095CB
:1019600090958C0D9D1DC0CFCD2829F0842F852307
:101970008F3F09F019C180E0B82FB170DB2EE091E4
:101980004F012091500136E080FD1CC0EE20A1F2F5
:1019900080918601816080938601F12CCDCF8E2FBE
:1019A00090E03E9FF0011124EF5AFE4F61816513D4
:1019B00006C06081641303C062816E11E7CFFC0131
:1019C0003196E770E213EBCF4F8358878F8198856C
:1019D0000E941611292F22952F70903260F0225FFD
:1019E0002F70223078F49F7051F0F8019581907F2C
:1019F00031F4D12C0AC09F7011F08823D1F3805E9E
:101A00008830B8F3C8010E94110BFD2C95CF351317
:101A100006C0241304C0D801EE2009F47BC04F8314
:101A200058878F8198850E94530B882309F4B8C08A
:101A3000EE2009F4B5C080918601803270F02091CB
:101A40008101309182013A8329831B82DD82CC821D
:101A50008E83CE0101960E94110B86E0F801A1E869
:101A6000B1E001900D928A95E1F70E94CC0B0E94A3
:101A7000BE0BFF24F39460CF911113C07C2DDB8645
:101A8000CA866E2D8B850E947E0B81E891E00E94B4
:101A9000110B86E0F50111928A95E9F70E94BE0BC1
:101AA0004BCF3513BCCF2413BACFE110B8CFD80138
:101AB00015968C93C8010E94110B86E0F5011192D6
:101AC0008A95E9F7F92C38CFC816D90688F1B601FE
:101AD000681B790BCB01F12C883C910508F047C0BD
:101AE000FE2CEE2009F45CC0351330C024132EC048
:101AF0008091860180FD21C0982F907FF1F0D80160
:101B000015968C931597903F39F0982F907F905FA2
:101B10008F70892B15968C93C8010E94110B86E05B
:101B2000F801A1E8B1E001900D928A95E1F7B6CFF6
:101B3000809590958C0D9D1DCECF86E0F801A1E893
:101B4000B1E001900D928A95E1F7F6CE4F83588768
:101B50008F8198850E94530B81117FCF80918601E0
:101B6000816080938601C8010E94110BE5CE7C2D17
:101B7000DB86CA866E2D8B850E947E0B86E0E1E8AF
:101B8000F1E0DF011D928A95E9F788CFEE2041F060
:101B90004F8358878F8198850E94530B81115DCFA9
:101BA000C8010E94110B65CF81E08E25E5CE1F9301
:101BB000CF93DF93CDB7DEB72C970FB6F894DEBF87
:101BC0000FBECDBF4F83588769877A878B879C87E5
:101BD000CE0107960E94300C882369F08A859B8588
:101BE000892B39F04F815885842F85238F3F09F049
:101BF00071C016E05FC086E0FE013796DE011196E7
:101C000001900D928A95E1F78A859B85892B89F34E
:101C100088859F8189238F3F61F32091500130E0B7
:101C2000C90101968770992740914F0148171906FD
:101C300071F40E944F0B1092500110924F0186E0F8
:101C4000E1E8F1E0DF011D928A95E9F7D2CF96E055
:101C5000929FD001939FB00D1124AF5ABE4FFE0149
:101C6000319601900D929A95E1F7809350010E9470
:101C70009D0BBFCF819FC00111248F5A9E4F0E94A0
:101C8000300C8823E9F0E0914F011E9FF0011124F0
:101C9000EF5AFE4F40815181628173818481958129
:101CA0000E948D0B80914F0190E0019687709927DB
:101CB00080934F0180914F01909150018913DACFA9
:101CC0002C960FB6F894DEBF0FBECDBFDF91CF913B
:101CD0001F91089569857A858B859C850E948D0B5F
:101CE00088CFEF92FF920F931F93CF93DF938C01D6
:101CF000892B89F0F12CEE24E394E8012196F80178
:101D00008491843709F457C0A0F4823009F43EC0AE
:101D100048F48130D1F0DF91CF911F910F91FF9066
:101D2000EF9008959CEF980F9037A8F70E948907CD
:101D30000AC0853709F44CC09CE7980F903758F7D4
:101D40008F770E9465088E0116C00E5F1F4FFE013F
:101D5000849190E2980F983060F48770FE2D01C056
:101D6000FF0F8A95EAF78F2F0E941F120E944612DA
:101D700002C00E9489078F2D815008F4BECFEFE981
:101D8000FFE03197F1F700C00000F6CF0E5F1F4F64
:101D9000FE01849190E2980F983050F48770FE2DE8
:101DA00001C0FF0F8A95EAF78F2F0E942512DECF20
:101DB0000E946508E0CF0E5F1F4FFE01C491C15025
:101DC000D0F28FE99FE00197F1F700C00000F7CF54
:101DD0000E5F1F4FFE01F490CECF089560939001E7
:101DE0007093910180939201909393010C943B0B1B
:101DF000CF93DF9300D000D0CDB7DEB769837A836D
:101E00008B839C838091900190919101A09192018C
:101E1000B091930129813A814B815C81822B932B74
:101E2000A42BB52B8093900190939101A0939201E4
:101E3000B09393010F900F900F900F90DF91CF917F
:101E40000C943B0BCF93DF9300D000D0CDB7DEB71F
:101E500069837A838B839C83809190019091910117
:101E6000A0919201B091930129813A814B815C81CB
:101E700082239323A423B52380939001909391010F
:101E8000A0939201B09393010F900F900F900F9039
:101E9000DF91CF910C943B0BCF93DF9300D000D018
:101EA000CDB7DEB769837A838B839C838091900161
:101EB00090919101A0919201B091930129813A8171
:101EC0004B815C8182279327A427B52780939001BB
:101ED00090939101A0939201B09393010F900F9072
:101EE0000F900F90DF91CF910C943B0B10928C01CF
:101EF00010928D0110928E0110928F010C943B0B69
:101F000041E050E060E070E004C0440F551F661FE0
:101F1000771F8A95D2F740938C0150938D0160937F
:101F20008E0170938F010C943B0B282F81E090E081
:101F3000A0E0B0E004C0880F991FAA1FBB1F2A951C
:101F4000D2F740918C0150918D0160918E0170917A
:101F50008F01842B952BA62BB72B80938C0190930C
:101F60008D01A0938E01B0938F010C943B0B41E047
:101F700050E060E070E004C0440F551F661F771FFB
:101F80008A95D2F7409550956095709580918C0117
:101F900090918D01A0918E01B0918F0184239523A2
:101FA000A623B72380938C0190938D01A0938E017B
:101FB000B0938F010C943B0B282F81E090E0A0E0C0
:101FC000B0E004C0880F991FAA1FBB1F2A95D2F743
:101FD00040918C0150918D0160918E0170918F0123
:101FE00084279527A627B72780938C0190938D018E
:101FF000A0938E01B0938F010C943B0BCF93DF9392
:1020000000D000D0CDB7DEB769837A838B839C8301
:1020100080918C0190918D01A0918E01B0918F01E2
:1020200029813A814B815C81822B932BA42BB52B88
:1020300080938C0190938D01A0938E01B0938F01BA
:102040000F900F900F900F90DF91CF910C943B0B5E
:10205000CF93DF9300D000D0CDB7DEB769837A830A
:102060008B839C8380918C0190918D01A0918E0136
:10207000B0918F0129813A814B815C818223932326
:10208000A423B52380938C0190938D01A0938E019E
:10209000B0938F010F900F900F900F90DF91CF9121
:1020A0000C943B0BCF93DF9300D000D0CDB7DEB7BD
:1020B00069837A838B839C8380918C0190918D01BD
:1020C000A0918E01B0918F0129813A814B815C8171
:1020D00082279327A427B52780938C0190938D01A5
:1020E000A0938E01B0938F010F900F900F900F90DF
:1020F000DF91CF910C943B0B0895292F220FE22FF3
:10210000E90FE80F8E2F877041E001C0440F8A95D8
:10211000EAF7E695E695E69585E0E89FF00111245B
:10212000E957FE4F30E020E070E05191DF01119758
:10213000CB01022E02C0969587950A94E2F7817032
:1021400081958527842385278C932F5F3F4F2530EA
:10215000310559F70895292F220FE22FE90FE80FD3
:102160009E2F9770E695E695E69585E0E89FF0014D
:102170001124E957FE4F50E040E080E0219130E02B
:10218000092E02C0369527950A94E2F7217033276D
:10219000042E01C0220F0A94EAF7822B4F5F5F4F93
:1021A0004530510559F70895BF92CF92DF92EF92D3
:1021B000FF920F931F93CF93DF938C01C0908C01FC
:1021C000D0908D01E0908E01F0908F018091900170
:1021D00090919101A0919201B0919301C82AD92ABE
:1021E000EA2AFB2ACFE1D0E0BC2ED701C6010C2E93
:1021F00004C0B695A795979587950A94D2F780FD68
:102200000EC0219788F7B12C8B2DDF91CF911F91B4
:102210000F91FF90EF90DF90CF90BF900895B8019D
:102220008C2F0E944C03019761F3EECFCF93DF9385
:10223000D82FC92F0E94D4106D2F7C2FDF91CF9102
:102240000C944C031F93CF93DF93162FD72F9091AD
:102250004E01992339F0862F972FDF91CF911F914F
:102260000C941611882391F0862F972F0E94D4107A
:10227000C82F682F812F9D2F0E947D10612F7D2FE9
:102280008C2FDF91CF911F910C944C03862F972FA9
:102290000E94AB10C82FF2CF80919401859585954F
:1022A00085950895809194018770089598E0899F9D
:1022B00090011124622B609394010C94950F9091DE
:1022C00094018095892380939401282F277061F4CD
:1022D000282F082E000C330B9217130629F0859532
:1022E000859585950C94B70F0895909194019770FA
:1022F00081E009F480E00895909112019923E1F0C2
:102300009091EA0197FF18C0E82FE695E695E695CB
:10231000EF3139F12091000130910101E20FF32FEB
:10232000F11D877021E030E001C0220F8A95EAF7A5
:102330008181822B818308952091000130910101D8
:10234000F90132969FEF40E05191851751F09F3F80
:1023500019F4511101C0942F4F5F4E31A9F79F3FDF
:1023600009F40895290F311D97FD3A95F9018283EB
:10237000089590911201992301F19091EA0197FF3C
:102380001CC0E82FE695E695E695EF3139F12091EE
:10239000000130910101E20FF32FF11D877021E060
:1023A00030E0A90102C0440F551F8A95E2F7CA0127
:1023B0008095918189238183089520910001309136
:1023C0000101F9013296205E3F4F9191891303C0BC
:1023D000DF0111971C92E217F307B9F7089581E026
:1023E00090E0E0910001F0910101E80FF91F1082E7
:1023F000019680329105A9F708959091B801982B24
:102400009093B8010895982F90958091B8018923F1
:102410008093B80108951092B80108959091B70182
:10242000982B9093B7010895982F90958091B701BC
:1024300089238093B70108951092B7010895909170
:10244000B601982B9093B6010895982F909580919E
:10245000B60189238093B60108951092B6010895BC
:10246000809395010895109295010895209100019F
:1024700030910101F9013196205E3F4F80E091914A
:1024800091118F5FE217F307D1F70895E0910001F2
:10249000F09101018091B8018083E0910001F091F9
:1024A000010180819091B701892B8083E091000127
:1024B000F091010180819091B601892B80839091E8
:1024C0009501992361F0E0910001F0910101808173
:1024D000892B80830E943612811110929501809180
:1024E0000001909101010C9473066DEE7EEF90E077
:1024F00080E00E94E61F60E082E090E00E94D41F2E
:1025000060E083E090E00E94D41F60E084E090E00F
:102510000E94D41F60E085E090E00C94D41F90E00E
:1025200080E00E94CE1F9C0181E02D3E3E4F09F0CD
:1025300080E0089582E090E00C94C61F682F82E04E
:1025400090E00C94D41F83E090E00C94C61F682F99
:1025500083E090E00C94D41F84E090E00C94C61FBC
:10256000682F84E090E00C94D41F8091F0018430B7
:1025700039F11092BA0188E190E020E40FB6F894A6
:10258000A895809360000FBE2093600080E00E94B9
:102590002D0383B7817F846083BF83B7816083BF4E
:1025A0007894889583B78E7F83BF0FB6F894A895EB
:1025B00080916000886180936000109260000FBE7F
:1025C0000895089508950E94E1120E94C0050E9496
:1025D000E21280E00E945B06811109C081E00E9446
:1025E0005B06982F81E0911103C080E0089581E09F
:1025F00008950E944F0B0E9467060C942D031F92B2
:102600001FB61F9211248F939F93AF93BF93809116
:10261000BA01811113C08091E6019091E701A09168
:10262000E801B091E9014196A11DB11D8093E60139
:102630009093E701A093E801B093E901BF91AF91B6
:102640009F918F911F901FBE1F90189582E084BDAF
:1026500093E095BD9AEF97BD80936E0008952FB7D4
:10266000F8948091E6019091E701A091E801B09182
:10267000E9012FBF0895CF92DF92EF92FF929C0164
:102680004FB7F8948091E6019091E701A091E8019D
:10269000B091E9014FBF6C017D01EE24FF24A90137
:1026A00070E060E0C416D506E606F70638F0821B37
:1026B000930BFF90EF90DF90CF9008950197F7CFA5
:1026C0001F921FB61F9211248F939F93AF93BF93B6
:1026D0008091E6019091E701A091E801B091E901B4
:1026E0000196A11DB11D8093E6019093E701A0938F
:1026F000E801B093E901BF91AF919F918F911F9035
:102700001FBE1F9018950E946F1BF8942FEF87EA49
:1027100091E6215080409040E1F700C0000087E042
:1027200090EBDC018093F9019093FA01A093FB01F7
:10273000B093FC0188E19CE00FB6F894A8958093D3
:1027400060000FBE90936000FFCFCF92DF92EF92B8
:10275000FF921F93CF93DF9310E0E82EF12C812F8F
:102760000E945B06D0E0C0E0C82ED12CC6010C2E22
:1027700002C0959587950A94E2F780FF13C06C2FED
:10278000712F80E00E943003E816F90659F481E0C9
:10279000DF91CF911F91FF90EF90DF90CF90089540
:1027A00011E0DDCF2196C330D10501F71130C1F71B
:1027B00080E0EECFCF93C82F8CE20E94A513882330
:1027C00021F08C2FCF910C94A51380E0CF91089528
:1027D000CF93DF9300D000D0CDB7DEB70E948F1229
:1027E000811102C00E94751295E6998308C00E946B
:1027F000C0058FE39CE90197F1F700C00000A981B3
:10280000A150A983A111F3CF89E20E94DA138111AB
:1028100010C18AE20E94DA1381110E94751285E0CC
:102820000E94DA1381110E9483130E949A128093EE
:10283000B90187E00E94DA13882371F08BE10E94CE
:10284000DA13882309F4D1C09091B901892F8D7FC3
:1028500091FF82608093B9018091B9010E949E121C
:102860000E94AC1290E09093EB018093EA0180EE1D
:102870000E94DA13882341F09091EA01892F8E7F1C
:1028800090FF81608093EA0189E30E94DA13882334
:1028900041F09091EA01892F8D7F91FF82608093B2
:1028A000EA0182EE0E94DA13882341F09091EA0156
:1028B000892F8B7F92FF84608093EA0186EE0E94CD
:1028C000DA13882341F09091EA01892F877F93FFE3
:1028D00088608093EA0183EE0E94DA13882341F036
:1028E0009091EA01892F8F7E94FF80618093EA01A5
:1028F00085E30E94DA13882341F09091EA01892F41
:102900008F7D95FF80628093EA0181E30E94DA1354
:10291000882341F09091EA01892F8F7B96FF806494
:102920008093EA0181E10E94DA13882341F09091BB
:10293000EA01892F97FB87F980588093EA018091FB
:10294000EA010E94B01287E20E94DA1389838EE1C5
:102950000E94DA13882319F0B981B260B9838FE13C
:102960000E94DA13882319F029812460298380E2E8
:102970000E94DA13882319F039813860398381E2A3
:102980000E94DA13882319F049814061498382E269
:102990000E94DA13882319F059815062598383E227
:1029A0000E94DA13882319F089818064898384E284
:1029B0000E94DA138823B1F1998190689983898103
:1029C0000E94A7123981232F30E050E040E0298394
:1029D0003A834B835C83CA01B9010F900F900F902B
:1029E0000F90DF91CF910C94EE0E8EE00E94DA13DF
:1029F000882339F09091B901892F8B7F92FF8460F1
:102A000029CF80E10E94DA139091B901882329F03F
:102A1000892F877F93FF88601DCF892F8E7F90FF3E
:102A2000816018CFA981A111CACF0E94A312282FBB
:102A3000CBCF0F900F900F900F90DF91CF91089513
:102A40008091BD0180FF12C06091050185E0689F03
:102A5000B001112475956795759567956038710576
:102A6000A8F561157105A1F1862F089581FF09C0B0
:102A70006091050185E0689FB00111247595679507
:102A8000EDCF6091050182FD0AC08091BE018823CF
:102A9000D1F09091040160910501891728F085E03B
:102AA000689FB0011124DACF869FB001112485E020
:102AB000869F9001879F300D1124692F70E0C90116
:102AC0000E94981FCBCF65E070E0CECF8FE70895CE
:102AD00081E008958091BD0180FF0CC060910301E9
:102AE00070E075956795759567956115710549F164
:102AF000862F089581FF06C06091030170E07595EF
:102B00006795F3CF6091030182FD0BC09091BE01E8
:102B10009923A1F06091020180910301961738F08A
:102B2000682F70E06038710500F38FE70895899F82
:102B3000C001112470E00E94981FF4CF61E070E0A2
:102B4000D7CF81E00895803F31F40E942015819510
:102B50008093C1010895813F19F40E942015F8CF98
:102B6000823F31F40E94201581958093C001089521
:102B7000833F19F40E942015F8CF893F29F40E9461
:102B80006A158093C20108958A3F21F40E946A1554
:102B90008195F7CF8B3F31F40E946A158195809320
:102BA000C30108958C3F19F40E946A15F8CF843F41
:102BB00031F48091BF0181608093BF010895853F0A
:102BC00021F48091BF018260F7CF863F21F480918C
:102BD000BF018460F1CF873F21F48091BF018860FD
:102BE000EBCF883F21F48091BF018061E5CF8D3F1D
:102BF00031F48091BD0181608093BD0108958E3FC5
:102C000021F48091BD018260F7CF8F3FB9F78091A9
:102C1000BD018460F1CF9091C001803F41F480916B
:102C2000C10187FD1092C101992371F00895813F80
:102C300029F48091C1011816ACF3F6CF823F81F4DC
:102C400097FFF2CF1092C0018091C1019091C20113
:102C5000892B9091C301892B49F71092BE010895E9
:102C6000833F19F4191674F3DFCF893F39F480914B
:102C7000C2011816CCF61092C201D6CF8A3F29F4B1
:102C80008091C20187FFD0CFF6CF8B3F39F480917E
:102C9000C30187FFC9CF1092C301C6CF8C3F29F46F
:102CA0008091C3011816BCF3BFCF843F31F48091EB
:102CB000BF018E7F8093BF01B7CF853F21F4809104
:102CC000BF018D7FF7CF863F21F48091BF018B7FBD
:102CD000F1CF873F21F48091BF01877FEBCF883F01
:102CE00021F48091BF018F7EE5CF8D3F31F480913B
:102CF000BD018E7F8093BD0197CF8E3F21F48091DF
:102D0000BD018D7FF7CF8F3F09F08ECF8091BD0140
:102D10008B7FF0CF8FEB91E00E947E060E942F13F5
:102D20009093BC018093BB0108951F93CF93DF93D1
:102D300000D000D000D0CDB7DEB78091BB0190911C
:102D4000BC010E943B13AC018091BE0120910601A1
:102D500030E0811106C0209107019AE0299F90017F
:102D600011244217530788F02091C001A091C1019E
:102D7000A9831091C201B091C301BE8321110FC07C
:102D80009A2F912B9B2B09F0B2C026960FB6F89480
:102D9000DEBF0FBECDBFDF91CF911F9108958F3F52
:102DA00019F08F5F8093BE01121624F40E94201543
:102DB0008093C0018091C00187FF05C00E9420154B
:102DC00081958093C0012981121624F40E94201558
:102DD0008093C1018091C10187FF05C00E94201529
:102DE00081958093C1018091C001882309F455C069
:102DF0003091C1013D83332309F44FC0282F880F40
:102E0000330B440B550B29833A834B835C83CA01F4
:102E1000B9010E949F1E23E333E343E35FE3698329
:102E20007A838B839C8369817A818B819C810E94C8
:102E3000031F69837A838B839C8369817A818B8169
:102E40009C810E94671E6093C0018D81082E000C3A
:102E5000990BAA0BBB0B89839A83AB83BC83BC0100
:102E6000CD010E949F1E23E333E343E35FE36983C5
:102E70007A838B839C8369817A818B819C810E9478
:102E8000031F69837A838B839C8369817A818B8119
:102E90009C810E94671E6093C101111624F40E9458
:102EA0006A158093C2018091C20187FF05C00E940C
:102EB0006A1581958093C2019E81191624F40E949F
:102EC0006A158093C3018091C30187FF05C00E94EA
:102ED0006A1581958093C30126960FB6F894DEBFDC
:102EE0000FBECDBFDF91CF911F910C948A168F3FFB
:102EF00009F057CF68CF85E0EFEBF1E0DF011D92DD
:102F00008A95E9F71092BE011092BD010895809153
:102F1000E4010895CF93DF9300D00F92CDB7DEB7D1
:102F20002091F001243019F523E029838A839B83C3
:102F30002093E9008FEF9091E800815095FD06C045
:102F400095ED9A95F1F700008111F5CF8091E80099
:102F500085FF0DC050E040E063E070E0CE010196D7
:102F60000E94E7198091E8008E778093E8000F9027
:102F70000F900F90DF91CF910895CF93DF9300D002
:102F80000F92CDB7DEB79C018091F001843031F50E
:102F900082E08983205831093B832A8383E0809330
:102FA000E9008FEF9091E800815095FD06C095ED06
:102FB0009A95F1F700008111F5CF8091E80085FF27
:102FC0000DC050E040E063E070E0CE0101960E9449
:102FD000E7198091E8008E778093E8000F900F90BA
:102FE0000F90DF91CF9108952091F0012430F1F4FA
:102FF00022E02093E9002FEF3091E800215035FDC9
:1030000006C035ED3A95F1F700002111F5CF20917A
:10301000E80025FF0BC050E040E065E070E00E9452
:10302000E7198091E8008E778093E8000895CF93A8
:10303000DF93D82FC92F8091F0018430F1F4909163
:1030400012019923E9F09091EA0197FF19C080934A
:10305000E9008FEF9091E800815095FD06C095E161
:103060009A95F1F700008111F5CF8091E80050E0CA
:1030700040E060E270E085FD1AC0DF91CF910895D5
:1030800081E08093E9008FEF9091E800815095FDF9
:1030900006C095ED9A95F1F700008111F5CF80916A
:1030A000E80085FFEACF50E040E068E070E08D2F57
:1030B0009C2F0E94E7198091E8008E778093E800AA
:1030C00080E2ED2FFC2FA4ECB1E001900D928A95E7
:1030D000E1F7D3CF8091EF01811109C00E946F1BEE
:1030E0000E94CC1B8091E20084608093E2000895EE
:1030F0001092EF010895089508950C94F91242E09A
:1031000061EC81E00E94EB1A42E061EC82E00E94F7
:10311000EB1A42E061EC83E00E94EB1A42E261ECC0
:1031200084E00C94EB1A8091F201893089F148F423
:10313000823009F494C0833009F44FC0813041F0EB
:1031400008958A3009F47BC08B3009F461C008957A
:103150008091F101813A09F03FC08091E800877FBA
:103160008093E8008091F5019091F601892B61F43C
:1031700060E284EC91E070E00E94361A8091E800F1
:103180008B778093E800089560E090E080E0F3CFD3
:103190008091F101813201F58091F5019091F60164
:1031A000009711F00397C1F48091E800877F809326
:1031B000E8008091E80082FF0BC08091F1008093CD
:1031C000E4018091E8008B778093E8000C941F1B4A
:1031D0008091F0018111EDCF08958091F101813A44
:1031E000D9F78091F5019091F601892BA9F780918B
:1031F000E800877F8093E8008091E80080FFFCCFA3
:10320000809112018093F1008091E8008E77DCCFED
:103210008091F101813201F78091F5019091F601E1
:10322000892BD1F68091E800877F8093E8000E9487
:103230001F1B8091F301809312010C944F0B80911E
:10324000F101813249F68091E800877F8093E800A0
:103250000E941F1B8091F4018093E50108958091E5
:10326000F101813A09F0B8CF8091E800877F80931F
:10327000E8008091E80080FFFCCF8091E501C2CF9B
:1032800084B7877F84BF0FB6F894A89580916000BB
:10329000886180936000109260000FBE80E8809388
:1032A0006100109261000E94B6060E946F1B0E948E
:1032B000CC1B8091E20084608093E20078940E94AD
:1032C0004C1E0E94B80688E091E00E946206809140
:1032D000F001853019F00E94BE06F9CF0E94B512A8
:1032E0008091EE01882399F30E94E312882379F3F9
:1032F0000E94D119ECCF9C01DA01892F99278330E4
:103300009105C1F068F48130910509F445C0029738
:1033100061F48DE690E02FE931E02D933C93089520
:1033200081329105E1F0829739F190E080E030E060
:1033300020E0F3CFC9019927213059F0823091055F
:1033400059F0EBE9F1E0892B81F7849190E09F013E
:10335000E4CFE3E8F1E0F9CFEFE6F1E0F6CF643057
:1033600020F7E62FF0E0EE0FFF1FEC5DFE4F20810F
:10337000318189E090E0D1CF6430B8F670E0FB0194
:10338000EE0FFF1FE45EFE4F20813181685E7E4FAD
:10339000FB01808190E0C1CF82E190E02CE032E03F
:1033A000BCCF80E189BD82E189BD09B400FEFDCFBB
:1033B0008091D8008F7D8093D8008091E00082605A
:1033C0008093E0008091E00081FDFCCF0895AF92F2
:1033D000BF92CF92DF92FF920F931F93CF93DF9311
:1033E0006C01EB018A010E943E1BF82E811123C063
:1033F0000115110539F0F80180819181C81BD90BA5
:10340000C80ED91EB12CA12C2097A9F08091E800FC
:1034100085FD22C08091E8008E778093E800011539
:103420001105A1F0F80180819181A80EB91EB18229
:10343000A08285E0F82E8F2DDF91CF911F910F9103
:10344000FF90DF90CF90BF90AF9008950E943E1BF9
:103450008823D1F2F82EEFCFF60181916F0180938E
:10346000F1002197FFEFAF1ABF0ACECFFC01CB01CD
:103470002091F7013091F8012617370790F0009757
:1034800029F42091E8002E772093E80040E000978F
:1034900051F4411108C08091E80082FF31C080E002
:1034A0000895C901F3CF2091F0012223A9F125301D
:1034B000A9F12091E80023FD2DC02091E80022FD14
:1034C000EACF2091E80020FFE2CF3091F300209175
:1034D000F200009719F02830310558F041E028300B
:1034E000310509F040E02091E8002E772093E800B4
:1034F000CECF41914093F10001972F5F3F4FE9CF2D
:103500008091F001882341F0853041F08091E800FE
:1035100083FFC1CF81E0089582E0089583E008959C
:10352000FC01CB012091F7013091F80126173707F4
:1035300090F0009729F42091E8002E772093E8007E
:1035400040E0009751F4411108C08091E80082FFEB
:1035500032C080E00895C901F3CF2091F001222309
:10356000B1F12530B1F12091E80023FD2EC020916A
:10357000E80022FDEACF2091E80020FFE2CF309161
:10358000F3002091F200009719F02830310558F02F
:1035900041E02830310509F040E02091E8002E7725
:1035A0002093E800CECF44914093F10031960197EB
:1035B0002F5F3F4FE8CF8091F001882341F08530A5
:1035C00041F08091E80083FFC0CF81E0089582E060
:1035D000089583E00895982F973028F08F70809396
:1035E000E90081E008959093E900242F762F50E0C0
:1035F000981731F07091EC002091ED005091F0009F
:1036000021FD02C09F5FE8CF3091EB003E7F3093F9
:10361000EB003091ED003D7F3093ED003091EB00F9
:1036200031603093EB007093EC002093ED005093E9
:10363000F0002091EE0027FDE5CF80E00895809115
:10364000F10187FF13C08091E80082FF06C08091DE
:10365000E8008B778093E80004C08091F00181112D
:10366000F2CF08958091F0018823D9F38091E8008A
:1036700080FFF8CF8091E8008E77ECCF2091E400B6
:103680003091E50095E6A9012091EC00822F817030
:1036900020FF06C08091E80080FF06C080E008950A
:1036A0002091E80022FD1AC08091F001882389F062
:1036B000853089F08091EB0085FD0FC02091E400FA
:1036C0003091E50042175307F9F29150E1F684E09A
:1036D000089582E0089583E0089581E008950E94AE
:1036E000DD1B0E94E51BE0EEF0E0808181608083BD
:1036F000E8EDF0E080818F77808319BCA7EDB0E022
:103700008C918E7F8C9380818F7E80831092EF01CD
:1037100008950F931F93CF93DF930E94DD1B0E94A8
:10372000E51BC8EDD0E088818F7788838881806829
:10373000888388818F7D888319BC1092F001109254
:10374000EC011092EE011092ED0100EE10E0F80194
:1037500080818B7F808388818160888342E060E004
:1037600080E00E94EB1AE1EEF0E080818E7F8083A2
:10377000E2EEF0E0808181608083808188608083D8
:10378000F80180818E7F8083888180618883DF91CA
:10379000CF911F910F910895E8EDF0E080818F7E29
:1037A0008083E7EDF0E080818160808384E082BFE8
:1037B00081E08093EF010C94891BE8EDF0E08081BB
:1037C0008E7F80831092E20008951092DA001092AA
:1037D000E10008951F920F920FB60F9211242F93BC
:1037E0003F934F935F936F937F938F939F93AF9389
:1037F000BF93EF93FF938091E10082FF0BC0809114
:10380000E20082FF07C08091E1008B7F8093E1009E
:103810000E944B1E8091DA0080FF19C08091D80071
:1038200080FF15C08091DA008E7F8093DA0080914E
:10383000D90080FF94C080E189BD82E189BD09B4CF
:1038400000FEFDCF81E08093F0010E946A18809114
:10385000E10080FF19C08091E20080FF15C08091D7
:10386000E2008E7F8093E2008091E200806180938D
:10387000E2008091D80080628093D80019BC85E076
:103880008093F0010E947C188091E10084FF29C0A0
:103890008091E20084FF25C080E189BD82E189BD7D
:1038A00009B400FEFDCF8091D8008F7D8093D800B1
:1038B0008091E1008F7E8093E1008091E2008F7E15
:1038C0008093E2008091E20081608093E200809129
:1038D000EC01882309F449C084E08093F0010E9440
:1038E0007D188091E10083FF29C08091E20083FF71
:1038F00025C08091E100877F8093E10082E0809382
:10390000F0011092EC018091E1008E7F8093E10044
:103910008091E2008E7F8093E2008091E2008061DE
:103920008093E20042E060E080E00E94EB1A809128
:10393000F00088608093F0000E947B18FF91EF9167
:10394000BF91AF919F918F917F916F915F914F91B7
:103950003F912F910F900FBE0F901F90189519BC9B
:103960001092F0010E94781872CF8091E30087FDD9
:1039700002C081E0B2CF83E0B0CF1F920F920FB6AA
:103980000F9211242F933F934F935F936F937F93E5
:103990008F939F93AF93BF93CF93DF93EF93FF9357
:1039A000D091E900DF708091EC00C82FC17080FDDC
:1039B000C0E81092E9008091F000877F8093F000CA
:1039C00078940E94011D1092E9008091F0008860B7
:1039D0008093F000CD2BCF70C093E900FF91EF9161
:1039E000DF91CF91BF91AF919F918F917F916F9117
:1039F0005F914F913F912F910F900FBE0F901F90AD
:103A000018951F93CF93DF93CDB7DEB7AA970FB664
:103A1000F894DEBF0FBECDBF81EF91E0FC010196AF
:103A20002091F100208321E0893F9207B9F70E949D
:103A300093188091E80083FF16C18091F101909165
:103A4000F2019A3008F00FC1E92FF0E0E05EFF4D7F
:103A50000C94AC1F803881F0823809F004C1809149
:103A6000F5018F708093E9008091EB0085FB88273A
:103A700080F91092E90006C08091ED019091EE016D
:103A8000911182609091E800977F9093E800809375
:103A9000F1001092F1008091E8008E77E0C0882359
:103AA00009F4CEC0823009F0DEC08091F3018111AB
:103AB000D1C08091F5018F7009F4D5C08093E900E1
:103AC0002091EB0020FFC6C0933031F48091EB00D1
:103AD00080628093EB00BEC09091EB009061909368
:103AE000EB0021E030E001C0220F8A95EAF7209335
:103AF000EA001092EA008091EB008860EACF811121
:103B0000B2C01091F3011F778091E3008078812B80
:103B10008093E3008091E800877F8093E8000E9413
:103B20001F1B8091E80080FFFCCF8091E30080683C
:103B30008093E30082E0111183E08093F00193C051
:103B40008058823008F08FC08091F3019091F40189
:103B50008C3D23E09207A1F583E08A838AE2898382
:103B60004FB7F894DE01139620E03EE051E2E32FD8
:103B7000F0E050935700E49120FF03C0E295EF700E
:103B80003F5FEF708E2F90E0EA30C0F0C7968D93C4
:103B90009D932F5F243159F74FBF8091E800877FB5
:103BA0008093E8006AE270E0CE0101960E94361A26
:103BB0008091E8008B778093E80055C0C096E7CFEE
:103BC000AE014F5F5F4F6091F5010E947B19BC0110
:103BD000892B09F448C08091E800877F8093E80032
:103BE00089819A810E94901AE3CF8038E1F5809113
:103BF000E800877F8093E8008091EC018093F100DA
:103C00004ACF811130C09091F301923060F58091DC
:103C1000E800877F8093E8009093EC010E941F1BCF
:103C20008091EC01882311F084E005C08091E300CD
:103C300087FDFACF81E08093F0010E947F1813C0C6
:103C40008091F301813079F481E0933009F080E0D4
:103C50008093EE011092E9008091E800877F8093C5
:103C6000E8000E941F1B8091E80083FF0AC080913A
:103C7000E800877F8093E8008091EB00806280936A
:103C8000EB00AA960FB6F894DEBF0FBECDBFDF9152
:103C9000CF911F9108950895CF938091F0018823CB
:103CA000A1F0C091E900CF709091EC00892F817054
:103CB00090FD80E8C82B1092E9008091E80083FD18
:103CC0000E94011DCF70C093E900CF9108950E941A
:103CD0006E1E6894B1110C94FD1E08950E94E21EA0
:103CE00088F09F5798F0B92F9927B751B0F0E1F0BD
:103CF000660F771F881F991F1AF0BA95C9F714C06D
:103D0000B13091F00E94FC1EB1E008950C94FC1EAD
:103D1000672F782F8827B85F39F0B93FCCF38695A5
:103D200077956795B395D9F73EF490958095709502
:103D300061957F4F8F4F9F4F0895E89409C097FB7F
:103D40003EF490958095709561957F4F8F4F9F4F72
:103D50009923A9F0F92F96E9BB279395F6958795B6
:103D600077956795B795F111F8CFFAF4BB0F11F479
:103D700060FF1BC06F5F7F4F8F4F9F4F16C0882320
:103D800011F096E911C0772321F09EE8872F762F56
:103D900005C0662371F096E8862F70E060E02AF097
:103DA0009A95660F771F881FDAF7880F9695879583
:103DB00097F9089557FD9058440F551F59F05F3FEC
:103DC00071F04795880F97FB991F61F09F3F79F03D
:103DD00087950895121613061406551FF2CF4695BF
:103DE000F1DF08C0161617061806991FF1CF869541
:103DF0007105610508940895E894BB276627772725
:103E0000CB0197F908950E94161F0C94871F0E94FA
:103E1000791F38F00E94801F20F0952311F00C9438
:103E2000701F0C94761F11240C94FD1E0E94DA1E44
:103E300070F3959FC1F3950F50E0551F629FF001FD
:103E4000729FBB27F00DB11D639FAA27F00DB11D16
:103E5000AA1F649F6627B00DA11D661F829F22279F
:103E6000B00DA11D621F739FB00DA11D621F839F26
:103E7000A00D611D221F749F3327A00D611D231FFC
:103E8000849F600D211D822F762F6A2F11249F574A
:103E900050409AF0F1F088234AF0EE0FFF1FBB1F4D
:103EA000661F771F881F91505040A9F79E3F51050C
:103EB00080F00C94701F0C94FD1E5F3FE4F3983E5D
:103EC000D4F3869577956795B795F795E7959F5FB6
:103ED000C1F7FE2B880F911D9695879597F9089548
:103EE00097F99F6780E870E060E008959FEF80ECAD
:103EF000089500240A941616170618060906089550
:103F000000240A9412161306140605060895092EB5
:103F10000394000C11F4882352F0BB0F40F4BF2B24
:103F200011F460FF04C06F5F7F4F8F4F9F4F089564
:103F300097FB072E16F4009407D077FD09D00E9456
:103F4000B21F07FC05D03EF4909581959F4F0895D0
:103F5000709561957F4F0895EE0FFF1F0590F491C6
:103F6000E02D0994AA1BBB1B51E107C0AA1FBB1F70
:103F7000A617B70710F0A61BB70B881F991F5A95F5
:103F8000A9F780959095BC01CD010895F999FECFD0
:103F900092BD81BDF89A992780B50895A8E1B0E057
:103FA00042E050E00C94EE1F262FF999FECF92BD0F
:103FB00081BDF89A019700B4021639F01FBA20BDEE
:103FC0000FB6F894FA9AF99A0FBE08950196272F22
:103FD0000E94D51F0C94D41FDC01CB01FC01F99980
:103FE000FECF06C0F2BDE1BDF89A319600B40D9245
:103FF00041505040B8F70895F894FFCF9802A402BA
:10400000A802AC02B002B402B802BC02C002C402F0
:10401000C802CC02D002D402D802DC02E002E402E0
:10402000FA08FA08520952099609B2092A092A0916
:10403000BD092A09850A850AF00A2A092A09F90A06
:104040002A1D4F1D331E4F1D331E7F1DA01D331E05
:04405000F51D011E3B
:1040540096012808140A321E87171718F417BD177B
:104064008A17013233343031404D3639DA028D0249
:0C40740057021E02B101CA01E301FC0169
:00000001FF
